:2020000052CFFD8830000352808E20A78830800352808E20A7F703F0F794F0F701F2F70117
:2020200017F00C8E208507FBB00215C08E20968E20418E204E8E20418E206A8E204500E3C5
:20204000E022200051220D8E2096220A004822308E209622788E209662B78E205E62230FF9
:202060002D0A090228072830002C22308E209622628E20968E20778E207A8E207D2230CF74
:202080000714B30011FB88300003F0008E20EF0703FCF8F9FCF988308003F0008E20BD0795
:2020A000F5F7B4F0F00CF9B59B03622A04D3039B035A02D303B59B03D303CAFAF9B89A03D7
:2020C000F4ED01030902B9F9B39B03F4EA02032804D803480003F1FF9B03D903F4EA02038B
:2020E000B3F4ED01030901B5F4EB0203B9F8F99A030225B29B03F4EA03032804D8034800B4
:20210000039A03D903B8F4EA0303B3F4ED01030901B5F4EB0303B9F8F9A37F17A780F02B46
:20212000B8D802D803A701F00980F1883000038E20BDA702F010883080038E20EF0704214D
:0C214000F10003F794F0D903D902B9FABA
:027FC0007FC080
:047FFC002119200027
:00000001FF
