S0030000FC
S12301008E0FFFCE2000C680BD02EFCE2080C680BD02EF8603B7DF008694B7DF000EBD0160
S12301206ABD013320F80FCE2000BD031A0E3986202006860D8D02860A3C36CE20800FBD00
S123014002FE0E24F986B4B7DF00323839BD0139863DBD01398FBD02607E012F164F5759DB
S123016082008F394F575982003986F4975086CF9751D6518DEECE00E5BD02A5CE0064BD31
S123018002CADD40DD44D6508DDACE01A0BD02A5CE0064BD02CADD42DD467F0052DC46CE33
S12301A00032BD02CADD4CCEFFCEBD02A5D346DD48DC46DE46BD02A53736DC44DE44BD0202
S12301C0A538DF579357CE0032BD02CAD3403736DC44DE4CBD02A53736DC44DE48BD02A550
S12301E0CE0032BD02CA38DF57D35705D342DD463233DD44CE0032BD02CADD4ADE4ABD0280
S1230200A53736DC46CE0032BD02CADD4CDE4CBD02A538DF57D357DD4EDC4E8300042E10B4
S12302207C0052965281102A037E019D8620200896528B9019894019BD0139BD012624045B
S12302404D26013F7C00519651811E2A037E0172BD01337C00509650810D2A037E016E39F2
S12302604D2A0B36862DBD01393240508200C30000270EC30000270ECE000A02378F8DF3C4
S1230280328A307E013939DD55DF5796583DDD539656D6573DDB53D7539655D6583DDB5388
S12302A0D753DC5339DD55DF579857975996552A04405082008F4D2A04405082008F8DC737
S12302C07D00592A044050820039DD55DF579857975996552A04405082008F4D2A044050BF
S12302E082008F028F7D00592A044050820039373C6F00085A26FA3833C004E7013937E638
S123030000E1012413E6023C3AA704386C005CE702E10125036F020D33396D0026020C3900
S123032037E6033C3AA604386A005CE703E10125036F030D3339F6DF00C580271CC5012752
S123034009B6DF01CE2000BD02FEC502270BCE2080BD031A2404B7DF013B8694B7DF003B29
S105FFF20336D0
S105FFF6FFF610
S105FFFE0100FC
S9030000FC
