S0030000FC
S12301008E0FFFCE2000C680BD034BCE2080C680BD034B8603B7DF008694B7DF000EBD01A6
S123012061BD013320F80FCE2000BD03760E3986202006860D8D02860A36CE20800FBD03E6
S12301405A0E24F986B4B7DF003239DF51BD0139863DBD0139BD02C17E012F4F5D2A0143B2
S12301603986F4974E86CF974FD64F8DEEDD53CE00E5DF55BD0307DE51DF53CE0064DF5563
S1230180BD032BDE51DF40DF44D64E8DCEDD53CE01A0DF55BD0307DE51DF53CE0064DF551F
S12301A0BD032BDE51DF42DF467F0050DE46DF53CE0032DF55BD032BDE51DF4CDF53CE003D
S12301C032DF55BD0307DC469351DD48DE44DF53DF55BD0307DE513CDE46DF53DF55BD03BF
S12301E00732339351DD53CE0032DF55BD032BDC51D3403736DE44DF53DE4CDF55BD030736
S1230200DE513CDE44DF53DE48DF55BD0307DE51DF53CE0032DF55BD032B3233D351DD51C3
S1230220D351D342DD4638DF44DF53CE0032DF55BD032BDE51DF4ADE46DF53CE0032DF55D0
S1230240BD032BDE51DF4CDE4ADF53DF55BD0307DE513CDE4CDF53DF55BD03073233D351B5
S12302608300042E107C0050965081102A037E01AC8620200C9650800A2A048B3A20028B38
S123028041BD0139BD012624044D26013F7C004F964F811E2A037E0169BD01337C004E96AE
S12302A04E810D2A037E016539DC51270EDC51270FCE000A02DF51378DF3328A307E0139EA
S12302C03996512A0B862DBD0139DC518D05DD518DD7394353CB01890039DC53D355DD51E8
S12302E039DC539355DD5139DF5318DF559654D6563DDD519654D6553DDB51D7519653D6DF
S1230300563DDB51D751399653985536DC552A03BD02D38FDC532A03BD02D3188F8DC93211
S12303204D2A07DC51BD02D3DD51399653985536DC552A03BD02D38FDC532A03BD02D3029A
S1230340324D8F2A03BD02D3DD5139373C6F00085A26FA3833C004E7013937E600E101248E
S123036013E6023C3AA704386C005CE702E10125036F020D33396D0026020C3937E6033C4A
S12303803AA604386A005CE703E10125036F030D3339F6DF00C580271CC5012709B6DF01AF
S11F03A0CE2000BD035AC502270BCE2080BD03762404B7DF013B8694B7DF003BB3
S105FFF2039274
S105FFF6FFF610
S105FFFE0100FC
S9030000FC
