S0030000FC
S12301008E0FFFCE2000C680BD02FACE2080C680BD02FA8603B7DF008694B7DF000EBD014A
S12301206ABD013320F80FCE2000BD03250E3986202006860D8D02860A3C36CE20800FBDF5
S123014003090E24F986B4B7DF00323839BD0139863DBD01398FBD02647E012F164F5D2AF4
S123016001438F394F5D2A01433986F4975086CF9751D6518DEECE00E5BD02AACE0064BDD1
S123018002D2DD40DD44D6508DDACE01A0BD02AACE0064BD02D2DD42DD467F0052DC46CE1E
S12301A00032BD02D2DD4CCEFFCEBD02AAD346DD48DC46DE46BD02AA3736DC44DE44BD02F0
S12301C0AA38DF579357CE0032BD02D2D3403736DC44DE4CBD02AA3736DC44DE48BD02AA39
S12301E0CE0032BD02D238DF57D35705D342DD463233DD44CE0032BD02D2DD4ADE4ABD0270
S1230200AA3736DC46CE0032BD02D2DD4CDE4CBD02AA38DF57D357DD4EDC4E8300042E10A2
S12302207C0052965281102A037E019D8620200C9652800A2A048B3A20028B41BD0139BD51
S1230240012624044D26013F7C00519651811E2A037E0172BD01337C00509650810D2A03C9
S12302607E016E394D2A0C36862DBD0139324353C30001C30000270EC30000270ECE000A9D
S123028002378F8DF3328A307E013939DD55DF5796583DDD539656D6573DDB53D7539655D9
S12302A0D6583DDB53D753DC5339DD55DF579857975996552A054353C300018F4D2A054306
S12302C053C300018F8DC57D00592A054353C3000139DD55DF579857975996552A05435393
S12302E0C300018F4D2A054353C300018F028F7D00592A054353C3000139373C6F00085AD5
S123030026FA3833C004E7013937E600E1012413E6023C3AA704386C005CE702E101250337
S12303206F020D33396D0026020C3937E6033C3AA604386A005CE703E10125036F030D3311
S123034039F6DF00C580271CC5012709B6DF01CE2000BD0309C502270BCE2080BD03252450
S10E036004B7DF013B8694B7DF003BCD
S105FFF20341C5
S105FFF6FFF610
S105FFFE0100FC
S9030000FC
