S0030000FC
S12301008E0FFF8603B7DF008614B7DF00BD01743F86202006860D8D02860A37F6DF00C530
S1230120023327F7B7DF0139DD48DF4ABD02E78DE096478DE68DDADC4ABD02E7DC48DE4A68
S123014039368DCD863D8DD38DC732BD02E720C5DD48DF4A934A270C2D0E2E04863F200AE4
S1230160863E2006863D2002863C9747DC48DE4A8DB620A1862B9747CC4650CE6D60BD0172
S123018028D34ABD0141CC4650CEB9B0BD0128D34ABD0141CCB9B0CEB9B0BD0128D34ABD50
S12301A00141862D9747CCB9B0CE92A0BD0128934ABD0141CC4650CEB9B0BD0128934ABD58
S12301C00141CC92A0CEB9B0BD0128934ABD0141862A9747CC0064CE012CBD0128BD033152
S12301E0BD0141CC00C8CE0064BD0128BD0331BD0141CC012CCEFF38BD0128BD0331BD01CD
S123020041CC0064CEFED4BD0128BD0331BD0141CCFF38CEFF9CBD0128BD0331BD0141862B
S12302202F9747CC7530CE0064BD0128BD0395BD0141CCFF38CE0064BD0128BD0395BD01A2
S123024041CC8AD0CEFF38BD0128BD0395BD0141CC8AD0CE004EBD0128BD0395BD0141CCAC
S12302601388CE0FA0BD0150CC1388CE1388BD0150CC0FA0CE1388BD0150CCEC78CEF06036
S1230280BD0150CCEC78CEEC78BD0150CCF060CEEC78BD0150CC7FBCCE7F58BD0150CC7F7B
S12302A0BCCE7FBCBD0150CC7F58CE7FBCBD0150CC8044CE80A8BD0150CC8044CE8044BD3A
S12302C00150CC80A8CE8044BD0150CC4650CE92A0BD0150CC92A0CE92A0BD0150CC92A0BB
S12302E0CE4650BD015039DD402A0E36862DBD011B324353C30001DD40DC402714DD4227F2
S123030015CE000ADF44BD035ED64337DC408DED328A307E011B399643D6453DDD409643DF
S1230320D6443DDB40D7409642D6453DDB40D74039DD42DF4498449746DC442A074353C3F0
S12303400001DD44DC422A074353C30001DD428DC6DC407D00462A054353C3000139DC449B
S12303602730CE0001200205084D2AFBDD44DC427F00407F0041200C7400447600457800DD
S123038041790040934425057C00412002D3440926E6DD4239DD42DF4498449746DC442AB6
S12303A0074353C30001DD44DC422A074353C30001DD428DA9DC40DE427D00462A054353F5
S10703C0C300013938
S105FFF6FFF610
S105FFFAFFFA08
S105FFFE0100FC
S9030000FC
