S0030000FC
S12301008E0FFFCE2000C680BD0349CE2080C680BD03498603B7DF008694B7DF000EBD01AA
S123012072BD013320F80FCE2000BD03740E3986202006860D8D02860A3C36CE20800FBD9E
S123014003580E24F986B4B7DF00323839BD0139863DBD0139DF53DC53BD026C7E012F7F38
S1230160005397542A03730053DE53394F5D2A01433986F4975086CF9751D6518DEECE007F
S1230180E5BD02B6CE0064BD031ADD40DD44D6508DDACE01A0BD02B6CE0064BD031ADD421B
S12301A0DD467F0052DC46CE0032BD031ADD4CCEFFCEBD02B6D346DD48DC46DE46BD02B619
S12301C03736DC44DE44BD02B638DF579357CE0032BD031AD3403736DC44DE4CBD02B6374F
S12301E036DC44DE48BD02B6CE0032BD031A38DF57D35705D342DD463233DD44CE0032BD18
S1230200031ADD4ADE4ABD02B63736DC46CE0032BD031ADD4CDE4CBD02B638DF57D357DD53
S12302204EDC4E8300042E107C0052965281102A037E01A58620200C9652800A2A048B3AAE
S123024020028B41BD0139BD012624044D26013F7C00519651811E2A037E017ABD01337C10
S123026000509650810D2A037E017639DD532A0E36862DBD0139324353C30001DD53DC5328
S12302802714DD552715CE000ADF57BD02E3D65637DC538DED328A307E0139399656D658FE
S12302A03DDD539656D6573DDB53D7539655D6583DDB53D75339DD55DF5798579759DC57BE
S12302C02A074353C30001DD57DC552A074353C30001DD558DC6DC537D00592A054353C38D
S12302E0000139DC572730CE0001200205084D2AFBDD57DC557F00537F0054200C740057C5
S1230300760058780054790053935725057C00542002D3570926E6DD5539DD55DF5798576C
S12303209759DC572A074353C30001DD57DC552A074353C30001DD558DA9DC53DE557D00D4
S1230340592A054353C3000139373C6F00085A26FA3833C004E7013937E600E1012413E6AE
S1230360023C3AA704386C005CE702E10125036F020D33396D0026020C3937E6033C3AA663
S123038004386A005CE703E10125036F030D3339F6DF00C580271CC5012709B6DF01CE20A1
S11D03A000BD0358C502270BCE2080BD03742404B7DF013B8694B7DF003BA7
S105FFF2039076
S109FFF6FFF60390FFFA80
S105FFFE0100FC
S9030000FC
