S0030000FC
S12301008E0FFF8603B7DF008614B7DF00BD01813F86202006860D8D02860A37F6DF00C523
S1230120023327F7B7DF01393736DF4ABD031E8DE096478DE68DDA964AD64BBD031E3233BC
S1230140DE4A39368DCB863D8DD18DC532BD031E20C39748D749DF4ADF44DE48DF42BD03F4
S123016051270C2B0E2A04863F200A863E2006863D2002863C97479648D649DE4A8DA920B7
S123018094862B97478646C650CE6D60BD0128DB4B994ABD01438646C650CEB9B0BD0128CC
S12301A0DB4B994ABD014386B9C6B0CEB9B0BD0128DB4B994ABD0143862D974786B9C6B00F
S12301C0CE92A0BD0128D04B924ABD01438646C650CEB9B0BD0128D04B924ABD014386922E
S12301E0C6A0CEB9B0BD0128D04B924ABD0143862A97478600C664CE012CBD0128BD03A8F9
S1230200BD01438600C6C8CE0064BD0128BD03A8BD01438601C62CCEFF38BD0128BD03A878
S1230220BD01438600C664CEFED4BD0128BD03A8BD014386FFC638CEFF9CBD0128BD03A8E0
S1230240BD0143862F97478675C630CE0064BD0128BD042CBD014386FFC638CE0064BD019C
S123026028BD042CBD0143868AC6D0CEFF38BD0128BD042CBD0143868AC6D0CE004EBD0165
S123028028BD042CBD01438613C688CE0FA0BD01528613C688CE1388BD0152860FC6A0CEA7
S12302A01388BD015286ECC678CEF060BD015286ECC678CEEC78BD015286F0C660CEEC78F1
S12302C0BD0152867FC6BCCE7F58BD0152867FC6BCCE7FBCBD0152867FC658CE7FBCBD0144
S12302E0528680C644CE80A8BD01528680C644CE8044BD01528680C6A8CE8044BD01528644
S123030046C650CE92A0BD01528692C6A0CE92A0BD01528692C6A0CE4650BD015239D7419C
S123032097402A0F862DBD011B9640405082009740D741DE402714DF422715CE000ADF4495
S1230340BD03E4D64337DE408DED328A307E011B399643904597419642924497409A412741
S12303601B96409842974196429844944198402B077F00408601200486FF97409741397FED
S123038000407F0041201A740044760045240C96439B419741964299409740780043790033
S12303A04296449A4526E0399742D743DF4498449746D64596442A04405082009744D74504
S12303C0D64396422A04405082009742D7438DAF9640D6417D00462A04405082009740D71B
S12303E041DE403996449A45273D9644D645CE000120035849084D2AFA9744D7459642D69E
S1230400437F00407F0041200C740044760045780041790040D045924425057C004120040F
S1230420DB4599440926E29742D743399742D743DF4498449746D64596442A084050820076
S12304409744D745D64396422A08405082009742D7438D909640D6417D00462A044050826C
S10B0460009740D741DE40394A
S105FFF6FFF610
S105FFFAFFFA08
S105FFFE0100FC
S9030000FC
