S0030000FC
S12301008E0FFF8603B7DF008614B7DF00BD01663F86202006860D8D02860AF6DF00C50273
S123012027F9B7DF013936DE42DF40BD03858DE1328DE88DDCDE44DF407E03858DD3863D29
S12301408DD98DCDBD038520CCBD040B9641270C2B0E2A04863F200A863E2006863D2002AF
S1230160863C8DC220AFCE4650DF42CE6D60DF44862BBD0126BD03F1BD013CCE4650DF4293
S1230180CEB9B0DF44862BBD0126BD03F1BD013CCEB9B0DF42CEB9B0DF44862BBD0126BDBD
S12301A003F1BD013CCEB9B0DF42CE92A0DF44862DBD0126BD03FEBD013CCE4650DF42CE30
S12301C0B9B0DF44862DBD0126BD03FEBD013CCE92A0DF42CEB9B0DF44862DBD0126BD036E
S12301E0FEBD013CCE0064DF42CE012CDF44862ABD0126BD045ABD013CCE00C8DF42CE0064
S123020064DF44862ABD0126BD045ABD013CCE012CDF42CEFF38DF44862ABD0126BD045AB7
S1230220BD013CCE0064DF42CEFED4DF44862ABD0126BD045ABD013CCEFF38DF42CEFF9C72
S1230240DF44862ABD0126BD045ABD013CCE7530DF42CE0064DF44862FBD0126BD04D7BDF7
S1230260013CCEFF38DF42CE0064DF44862FBD0126BD04D7BD013CCE8AD0DF42CEFF38DF6A
S123028044862FBD0126BD04D7BD013CCE8AD0DF42CE004EDF44862FBD0126BD04D7BD0174
S12302A03CCE1388DF42CE0FA0DF44BD0149CE1388DF42CE1388DF44BD0149CE0FA0DF4212
S12302C0CE1388DF44BD0149CEEC78DF42CEF060DF44BD0149CEEC78DF42CEEC78DF44BD87
S12302E00149CEF060DF42CEEC78DF44BD0149CE7FBCDF42CE7F58DF44BD0149CE7FBCDF34
S123030042CE7FBCDF44BD0149CE7F58DF42CE7FBCDF44BD0149CE8044DF42CE80A8DF449F
S1230320BD0149CE8044DF42CE8044DF44BD0149CE80A8DF42CE8044DF44BD0149CE46500C
S1230340DF42CE92A0DF44BD0149CE92A0DF42CE92A0DF44BD0149CE92A0DF42CE4650DF9F
S123036044BD01493996409A412714DE40DF422713CE000ADF44BD048B9643368DED328A04
S1230380307E011B39DE428D1EDE448D1A96402A0B862DBD011BDE408D4BDF408DC78D2510
S12303A0DF448D21DF42393434360736DF4630A604A702A605A7039646A7049647A705DE48
S12303C0463206323936073630EE04DF4630A602A704A603A705DE463206323131394353DF
S12303E0CB01890039DF46730046730047DE46083996439B4597419642994497403996433F
S123040090459741964292449740398DF196409A41271B9640984297419642984494419853
S1230420402B077F00408601200486FF97409741397F00407F0041201A740044760045241F
S12304400C96439B41974196429940974078004379004296449A4526E0399642984436D649
S12304604596442A03BD03DE9744D745D64396422A03BD03DE9742D7438DB6324D2A0B965B
S123048040D641BD03DE9740D7413996449A452745C60120077800457900445C96442AF559
S12304A07F00407F0041200C74004476004578004179004096439045974396429244974299
S12304C025057C0041200C96439B4597439642994497425A26D2399642984436D64596447A
S12304E02A03BD03DE9744D745D64396422A03BD03DE9742D743BD048B324D2A0B9640D6DB
S10C050041BD03DE9740D74139E7
S105FFF6FFF610
S105FFFAFFFA08
S105FFFE0100FC
S9030000FC
