S0030000FC
S12301008E0FFFCE2000C680BD03D2CE2080C680BD03D28603B7DF008694B7DF000EBD0198
S123012073BD013320F80FCE2000BD04220E3986202006860D8D02860ADF5736CE20800FB1
S1230140BD03FF0E24F986B4B7DF0032DE5739DF53BD0139863DBD01399653D654BD028606
S12301607E012F5F47499754D753DE53394F575982003986F4975086CF9751D6518DEECE97
S123018000E5BD0310CE0064BD0394DF40DF44D6508DDACE01A0BD0310CE0064BD0394DFAD
S12301A042DF467F00529646D647CE0032BD0394DF4CCEFFCEBD0310DB4799469748D74920
S12301C09644D645DE44BD031037369646D647DE46BD03103233D0549253CE0032BD039418
S12301E0DB41994037369644D645DE4CBD031037369644D645DE48BD0310CE0032BD0394FE
S1230200DF573233DB5899575849DB4399429746D74732339744D745CE0032BD0394DF4AAE
S1230220BD0310DF4E9646D647CE0032BD0394DF4CBD0310DB4F994E974ED74F964E261639
S1230240964F810422107C0052965281102A037E01A68620200896528B9019894019BD01DB
S123026039BD012624044D26013F7C00519651811E2A037E017BBD01337C00509650810DD7
S12302802A037E017739D75497532A0F862DBD01399653405082009753D754DE532714DFAB
S12302A0552715CE000ADF57BD034CD65637DE538DED328A307E013939965690589754964F
S12302C055925797539A54271B96539855975496559857945498532B077F005386012004A5
S12302E086FF97539754397F00537F0054201A740057760058240C96569B54975496559975
S123030053975378005679005596579A5826E0399755D756DF5798579759D65896572A046B
S1230320405082009757D758D65696552A04405082009755D7568DAF9653D6547D00592ACB
S123034004405082009753D754DE533996579A58273D9657D658CE000120035849084D2A94
S1230360FA9757D7589655D6567F00537F0054200C740057760058780054790053D058928F
S12303805725057C00542004DB5899570926E29755D756399755D756DF5798579759D65802
S12303A096572A08405082009757D758D65696552A08405082009755D7568D909653D65447
S11303C07D00592A04405082009753D754DE533994
S11603D2FF03D0376F00085A26FAFE03D033C004E7013931
S11903E737FF03E5FB03E6F703E65FF903E5F703E5FE03E53339A9
S12303FF37E600E1012418E602FF03FD8DDAA704FE03FD6C005CE702E10125036F020D333C
S104041F399F
S12304226D0026020C3937E603FF04208DB7A604FE04206A005CE703E10125036F030D331D
S123044239F6DF00C580271CC5012709B6DF01CE2000BD03FFC502270BCE2080BD04222459
S10E046204B7DF013B8694B7DF003BCA
S105FFF20443C2
S109FFF6FFF60443FFFACC
S105FFFE0100FC
S9030000FC
