S0030000FC
S12301008E0FFFCE2000C680BD04A4CE2080C680BD04A48603B7DF008694B7DF000EBD01F2
S123012068BD013320F80FCE2000BD04F40E3986202006860D8D02860A36CE20800FBD045F
S1230140D10E24F986B4B7DF003239DF51BD0139863DBD0139BD031E7E012F7F0057975832
S12301602A03730057DE573986F4974E86CF974F964F8DE7DF53CE00E5DF55BD03F3DE5128
S1230180DF53CE0064DF55BD0470DE51DF40DF44964E8DC7DF53CE01A0DF55BD03F3DE5132
S12301A0DF53CE0064DF55BD0470DE51DF42DF467F0050DE46DF53CE0032DF55BD0470DE95
S12301C051DF4CDF53CE0032DF55BD03F3DE51DF55DE46DF53BD0397DE51DF48DE44DF53CC
S12301E0DF55BD03F3DE51BD0340DE46DF53DF55BD03F3DE51DF55BD035EDF53BD0397DEC0
S123020051DF53CE0032DF55BD0470DE51DF53DE40DF55BD038ADE51BD0340DE44DF53DE94
S12302204CDF55BD03F3DE51BD0340DE44DF53DE48DF55BD03F3DE51DF53CE0032DF55BDA5
S12302400470DE51DF55BD035EDF53BD038ADE51DF53DF55BD038ADE51DF53DE42DF55BDD8
S1230260038ADE51DF46BD035EDF44DF53CE0032DF55BD0470DE51DF4ADE46DF53CE003213
S1230280DF55BD0470DE51DF4CDE4ADF53DF55BD03F3DE51BD0340DE4CDF53DF55BD03F3E8
S12302A0DE51DF53BD035EDF55BD038ADE51DF55CE0004DF53BD03A42B107C005096508104
S12302C0102A037E01B38620200C9650800A2A048B3A20028B41BD0139BD012624044D2612
S12302E0013F7C004F964F811E2A037E0170BD01337C004E964E810D2A037E016C399651EA
S12303009A522714DE51DF532713CE000ADF55BD04249654368DED328A307E013939DE537E
S12303208D1EDE558D1A96512A0B862DBD0139DE518D4BDF518DC78D25DF558D21DF5339E4
S12303403434360736DF5730A604A702A605A7039657A7049658A705DE5732063239360769
S12303603630EE04DF5730A602A704A603A705DE573206323131394353CB01890039DF577F
S1230380730057730058DE57083996549B569752965399559751399654905697529653925E
S12303A0559751398DF196519A52271B96519853975296539855945298512B077F00518648
S12303C001200486FF97519752397F00517F0052201A740055760056240C96549B52975205
S12303E096539951975178005479005396559A5626E0399653985536D65696552A03BD037C
S1230400779755D756D65496532A03BD03779753D7548DB6324D2A0B9651D652BD037797E8
S123042051D7523996559A562745C60120077800567900555C96552AF57F00517F0052200D
S12304400C74005576005678005279005196549056975496539255975325057C0052200CCA
S123046096549B5697549653995597535A26D2399653985536D65696552A03BD03779755F3
S1230480D756D65496532A03BD03779753D754BD0424324D2A0B9651D652BD03779751D701
S10504A05239CB
S11604A4FF04A2376F00085A26FAFE04A233C004E70139B8
S11904B937FF04B7FB04B8F704B85FF904B7F704B7FE04B73339E4
S12304D137E600E1012418E602FF04CF8DDAA704FE04CF6C005CE702E10125036F020D33C3
S10404F139CD
S12304F46D0026020C3937E603FF04F28DB7A604FE04F26A005CE703E10125036F030D33A7
S123051439F6DF00C580271CC5012709B6DF01CE2000BD04D1C502270BCE2080BD04F424E1
S10E053404B7DF013B8694B7DF003BF7
S105FFF20515EF
S109FFF6FFF60515FFFAF9
S105FFFE0100FC
S9030000FC
