S0030000FC
S12301008E0FFFCE2000C680BD03FACE2080C680BD03FA8603B7DF008694B7DF000EBD0148
S1230120AFBD013320F80FCE2000BD044A0E3986202006860D8D02860ADF5736CE20800F4D
S1230140BD04270E24F986B4B7DF0032DE5739DF53BD0139863DBD01399653D654BD02AEB5
S12301607E012F5F4749C2009754D753DE534F57598200394756475647564756475647566E
S123018047569753D754DE53394756475647564756475647569753D754DE533958495849D0
S12301A058495849584958499753D754DE533986F4975086CF9751D6518DB3CE0177BD032D
S12301C038BD0174DF40DF44D6508DA2CE02AABD0338BD0174DF42DF467F00529646D64766
S12301E0BD0189DF4C40508200BD019CDB4799469748D7499644D645DE44BD03383736960B
S123020046D647DE46BD03383233D0549253BD0189DB41994037369644D645DE4CBD03382D
S123022037369644D645DE48BD0338BD0189DF573233DB5899575849DB4399429746D747A0
S123024032339744D745BD0189DF4ABD0338DF4E9646D647BD0189DF4CBD0338DB4F994E35
S1230260974ED74F964E2616964F810422107C0052965281102A037E01DC8620200896522E
S12302808B9019894019BD0139BD012624044D26013F7C00519651811E2A037E01B7BD011A
S12302A0337C00509650810D2A037E01B339D75497532A0F862DBD013996534050820097A5
S12302C053D754DE532714DF552715CE000ADF57BD0374D65637DE538DED328A307E0139CC
S12302E0399656905897549655925797539A54271B96539855975496559857945498532B7B
S1230300077F00538601200486FF97539754397F00537F0054201A740057760058240C9684
S1230320569B54975496559953975378005679005596579A5826E0399755D756DF579857D0
S12303409759D65896572A04405082009757D758D65696552A04405082009755D7568DAF85
S12303609653D6547D00592A04405082009753D754DE533996579A58273D9657D658CE00A5
S12303800120035849084D2AFA9757D7589655D6567F00537F0054200C7400577600587805
S12303A00054790053D058925725057C00542004DB5899570926E29755D756399755D7564B
S12303C0DF5798579759D65896572A08405082009757D758D65696552A0840508200975541
S11B03E0D7568D909653D6547D00592A04405082009753D754DE53390F
S11603FAFF03F8376F00085A26FAFE03F833C004E70139B9
S119040F37FF040DFB040EF7040E5FF9040DF7040DFE040D33398A
S123042737E600E1012418E602FF04258DDAA704FE04256C005CE702E10125036F020D33C1
S10404473977
S123044A6D0026020C3937E603FF04488DB7A604FE04486A005CE703E10125036F030D33A5
S123046A39F6DF00C580271CC5012709B6DF01CE2000BD0427C502270BCE2080BD044A24E0
S10E048A04B7DF013B8694B7DF003BA2
S105FFF2046B9A
S109FFF6FFF6046BFFFAA4
S105FFFE0100FC
S9030000FC
