:06000000020026020026AA
:03000B00020026CA
:03001300020026C2
:03001B00020026BA
:2000230002002675813390FFF1E4F0F0F07440F00000744EF000007437F00200C8C083C07A
:200043008290FFF1E0C330E1041582E0D3D082D083227420C083C08290FFF1C0E0E030E0A9
:20006300FCD0E01582F0D082D08322C0E07830EAF6EB08F6EC08F6ED08F6D0E07A307B3296
:2000830022116EC0E0783051511155D0E011571155783251517A307B32221155743D1157AA
:2000A300115578305151740D1157740A80A6116E51D9600920E70A743E118680E9743D80FA
:2000C300F8743C80F47A007B007CA07D92742D118451A4119D7A007B007C607D6D742D119B
:2000E3008451A4119D7A507B467C607D6D742B118451B8119D7A507B467CB07DB9742B11FD
:200103008451B8119D7AA07B927CB07DB9742B118451B8119D7AB07BB97CA07D92742D11F2
:200123008451C8119D7A507B467CB07DB9742D118451C8119D7AA07B927CB07DB9742D114C
:200143008451C8119D7A2C7B017C387DFF742A1184711C119D7A647B007CD47DFE742A11BE
:2001630084711C119D7A387BFF7C9C7DFF742A1184711C119D7A387BFF7C647D00742F1152
:200183008471A3119D7A307B757C647D00742F118471A3119D7AD07B8A7C387DFF742F11F2
:2001A3008471A3119D7AD07B8A7C4E7D00742F118471A3119D7A887B137CA07D0F11B17AF2
:2001C300887B137C887D1311B17AA07B0F7C887D1311B17A787BEC7C607DF011B17A787BE5
:2001E300EC7C787DEC11B17A607BF07C787DEC11B17ABC7B7F7C587D7F11B17ABC7B7F7C1F
:20020300BC7D7F11B17A587B7F7CBC7D7F11B17A447B807CA87D8011B17A447B807C447D0D
:200223008011B17AA87B807C447D8011B17A507B467CB07DB911B17A507B467C507D461103
:20024300B17AB07BB97C507D4611B111A9A5E8C0E0E6CAC0E008E6CBC0E0EB30E706742D02
:200263001157518E902000E4F07C0A7D007152EC2430A3F0EA4B70F1E060061157158280BC
:20028300F7D0E0FBD006FAD0E0F822EAF42401FAEBF43400FB22ECF42401FCEDF43400FDDF
:2002A30022EBF8E6F42401FB08E6F43400CAF8EBF608EAF622EBF8E6FB08E6CAF8E62BF6FE
:2002C30008E63AF622EBF8E6FB08E6CAF8E6C39BF608E69AF622EBF8E6FB08E6C0E0CAF879
:2002E300E6C39BFB08E69AFA4B6015D0E066C0E0EA66FBD0E05B6A20E70374012274FF22CE
:20030300158122EA8CF0A4FEAFF0EA8DF0A42FFFEB8CF0A42FFBEEFA22EAC0E0EBC0E0F8F6
:20032300E6FC08E6FD30E7025199EAF8E6FA08E6FB30E702518E7106D0E0F808E6FDD0E08D
:20034300F808E66D30E702518EEBF618EAF622ED700E4C600AF5F0EB7006EA84FAACF022C7
:2003630079018008C3EC33FCED33FD09ED30E7F4E4FEFF800EC3ED13FDEC13FCC3EE33FE70
:20038300EF33FFEAC39CFAEB9DFB40030E8006EA2CFAEB3DFBD9DEEAFCEBFDEEFAEFFB22F0
:2003A300EAC0E0EBC0E0F8E6FC08E6FD30E7025199EAF8E6FA08E6FB30E702518E7152D027
:1603C300E0F808E6FDD0E0F808E66D30E702518EEBF618EAF6226B
:00000001FF
