:060000000200260200D7F9
:03000B00020026CA
:03001300020026C2
:03001B00020026BA
:200023000200267581357830798090200012007090FFF1E4F0F0F07440F00000744EF0000D
:20004300007437F0A37403F0D2A8D2AF7830C2AF1200B0D2AF50F56013FF90FFF1E030E07A
:20006300F91582EFF0B40DE47F0A80EEA5E4F6E908F6E408F608F608A68208A683F0A3D95F
:20008300FC22C0E0E608667004D0E0C32218060808E6080826F58208E63400F583D0E0F047
:2000A30018181806E61866700208F6D322E67002C32216080808E60826F58208E63400F519
:2000C30083E0C0E0181806E618186670030808F6D0E0D322C0D0C2D4D2D3A982AA83FB909C
:1600E300FFF1E030E1081582E07830120085EB8A838982D0D03293
:00000001FF
