:06000000020026020426A6
:03000B00020026CA
:030013000204479D
:03001B00020026BA
:200023000200267581587830798090200071BF7836798090208071BF90FFF1E4F0F0F07417
:2000430040F00000744EF000007437F0A37403F0D2A87413A3F0D2AAD2AF11B0117F80FABA
:20006300C083C082E8C0E07830C2AF71FFD2AFC8D0E0C8D082D0832274208006740D11852E
:20008300740AC083C082C8C0E0E87836C2AF71D4D2AF50F690FFF17437F0D0E0F8D082D0FA
:2000A3008322FC20E703E4800274FFFD227CE57D007B3E31F07CA07D017B4031F07C647D0F
:2000C300007B4231F07C327D007B4431F07556F47557CFE55711A57B4631F07A467B3E513C
:2000E300E57A467B427189E55611A57B4831F07A487B4051E57A487B4271897A4A7B4631EA
:20010300F87A4C7B4831F87558007A507B4C31F87B4471897A3C7B5031F87B4451E57A5287
:200123007B4C31F87B3C51917A3C7B4C31F851E57A547B4A31F851E57A547B3C51917A5430
:200143007B4471897A547B4651817A3C7B4A31F87B5251E57A3C7B4471897A4C7B4A31F8B8
:200163007B5051E57A4C7B3C51817A4C7B4C51817A4C7B4851817A4A7B5431F87A4E31F8C5
:200183007B4471897A507B4C31F87B4471897A3C7B5031F851E57A547B4E31F851E57A548C
:2001A3007B3C5181E5557015E55424FB400F0558E558B410028002210D7420800AE55824BE
:2001C300F650022407243A1185116350037001A50557E55720E70424E2400201D6117F0581
:2001E30056E55620E70424F3400201D322EBF8ECF6ED08F622EBF8E6FB08E6CAC8CB1BF61F
:20020300EA08F618E8FA22C0E0EAF8E611A57B3C31F07A3CD0E01185743D1185EAF8512546
:20022300017BE8C0E0E6CAC0E008E6CBC0E0EB30E706742D11855160902100E4F07C0A71A2
:2002430024EC2430A3F0EA4B70F3E060061185158280F7D0E0FBD0E0FAD0E0F822E4C39AC2
:20026300FAE49BFB22E4C39CFCE49DFD22EBF8E4C396FB08E496CAF8EBF608EAF622EBF8D9
:20028300E6FB08E6CAF8E62BF608E63AF622EBF8E6FB08E6CAF8E6C39BF608E69AF622EB4A
:2002A300F8E6FB08E6C0E0CAF8E6C39BFB08E69AFA4B6015D0E066C0E0EA66FBD0E05B6A1B
:2002C30020E70374012274FF22158122EA8CF0A4FEAFF0EA8DF0A42FFFEB8CF0A42FFBEE2A
:2002E300FA22EAC0E0EBC0E0F8E6FC08E6FD30E7025168EAF8E6FA08E6FB30E7025160516D
:20030300CFD0E0F808E6FDD0E0F808E66D30E7025160EBF618EAF622ED70374C602CEB60F9
:2003230021EB8CF084FB7908EAC333FAE5F033F5F040059C40078002C39CF5F00AD9E9AC05
:20034300F022EA8CF084FAACF022EBFDEAFCE4FBFA22EBC39D40F37005EAC39C40ECEB8D3D
:20036300F084F9E98CF0A4FEAFF0E98DF0A42FFFEAC39EEB9F50031980E9EAC39EFCEB9FB4
:20038300FDE9FA7B0022EAC0E0EBC0E0F8E6FC08E6FD30E7025168EAF8E6FA08E6FB30E76F
:2003A300025160711BD0E0F808E6FDD0E0F808E66D30E7025160EBF618EAF622E4F6E908D5
:2003C300F6E408F608F608A68208A683F0A3D9FC22C0E0E608667004D0E0C322180608082E
:2003E300E6080826F58208E63400F583D0E0F018181806E61866700208F6D322E67002C3FB
:200403002216080808E60826F58208E63400F583E0C0E0181806E618186670030808F6D0E9
:20042300E0D322C0D0C2D4D2D3A982AA83FB90FFF1E030E1071582E0783071D4EB8A838969
:2004430082D0D032C0D0C2D4D2D3A982AA83FB90FFF1E030E0E6783671FF500690FFF0F0EE
:0A04630080DA90FFF17436F080D2C9
:00000001FF
