:060000000200360200368A
:03000B00020036BA
:03001300020036B2
:03001B00020036AA
:030023000200DCFC
:20003600758135783079809020001175759840D29C438740438920758BF3758DF3D28ED2DD
:20005600ACD2AF7830C2AF11B5D2AF50F6600FFFF5993099FDC299B40DE9740A80F2A5E477
:20007600F6E908F6E408F608F608A68208A683F0A3D9FC22C0E0E608667004D0E0C32218AD
:20009600060808E6080826F58208E63400F583D0E0F018181806E61866700208F6D322E66A
:2000B6007002C32216080808E60826F58208E63400F583E0C0E0181806E6181866700308D3
:2000D60008F6D0E0D32210980132C0D0C2D4D2D3A982AA83FBE5997830118AEB8A838982AA
:0300F600D0D03235
:00000001FF
