:03000000C3000139
:03002800C33104DD
:03003000C34E04B8
:200100003100102100200680CDC6032180200680CDC603014101AFED79ED79ED793E40EDD5
:200120007900003E4EED7900003E36ED793EEF014201ED793EF7014301ED79ED46FBCD7E4A
:2001400001CD510118F8E5210020F3CD0B04FBE1C93E0DCD58013E0AF5E5218020F3CDDAE7
:2001600003FB30F9E1C53E37014101ED79C1F1C93E2018E44F879F47C96F879F67C93EF443
:2001800032D8023ECF32D9023AD902CD740111E500CD3603444D116400CD9D0322C8022265
:2001A000CC023AD802CD740111A001CD3603444D116400CD9D0322CA0222CE023E0032DAC6
:2001C00002ED4BCE02113200CD9D0322D202444D11CEFFCD3603ED5BCE021922D402ED4B99
:2001E000CE02ED5BCE02CD3603E5ED4BCC02ED5BCC02CD3603D1373FED52444D113200CDE3
:200200009D03ED5BC80219E5ED4BCC02ED5BD402CD3603444D113200CD9D03E5ED4BCC02D8
:20022000ED5BD202CD3603D11929ED5BCA021922CE02C1ED43CC02113200CD9D0322D00207
:20024000444D545DCD3603E5ED4BCE02113200CD9D0322D202444D545DCD3603D11922D699
:20026000023AD702B720173AD602FE0530103ADA023C32DA02FE10DAC1013E2018093ADA89
:2002800002C69027CE4027CD5801CD46013009B7200621380036FFFF21D902347ECB7FC213
:2002A0008801FE1EDA8801CD510121D802347ECB7FC28301FE0DDA8301C9CD58013E3DCD3A
:0802C0005801CDDB02C37001FF
:2002DB007CB5282ECB7C280C3E2DCD58017D2F6F7C2F6723C5D5CDF702D1C1C97CB5C84428
:2002FB004D110A00CD5F03C5CDF702E17DC630C358013E30C35801E56069373FED52280933
:20031B007CA86F78AAA5ACF601E1C9616BED6C794B5FED4CED5C7C818367C978AAF5CB7847
:20033B002807AF676FED42444DCB7A2807AF676FED52545DCD2603F1CB7F28077C2F677D56
:20035B002F6F23C97AB3C82E011808B77B175F7A17572CCB7A28F47DF56069AF474F180FF0
:20037B00F5B77A1F577B1F5FB779174F781747373FED52380303180119F13D20E3E5C5E180
:20039B00C1C978AAF5CB782807AF676FED42444DCB7A2807AF676FED52545DCD5F03F1CB16
:2003BB007F28077C2F677D2F6F23C9F5E5360078D6042377C6022336003D20FAE1F1C9D577
:2003DB00E5DDE357DD7E00DDBE017A3805DDE3E1D1C9DD340011040019DD5E0219777B3C5A
:2003FB00DDBE013801AFDD77027EDDE3E1D137C97EB72001C9D5E5DDE3DD3500110400193F
:20041B00DD5E03197B3CDDBE013801AFDD77037EDDE3E1D137C9F5C5014101ED78CB4F2844
:20043B000D014001ED78E5210020CDDA03E1C1F1FBED4DF5C5014101ED78CB47280FE521A4
:1E045B008020CD0B04E1300A014001ED79C1F1FBED4D3E36014101ED79C1F1FBED4D59
:021012003104A7
:02108A004E0412
:00000001FF
