:03000000C3000139
:03002800C32F04DF
:03003000C34C04BA
:200100003100102100200680CDC4032180200680CDC403014101AFED79ED79ED793E40EDD9
:200120007900003E4EED7900003E36ED793EEF014201ED793EF7014301ED79ED46FBCD7E4A
:2001400001CD510118F8E5210020F3CD0904FBE1C93E0DCD58013E0AF5E5218020F3CDD8EB
:2001600003FB30F9E1C53E37014101ED79C1F1C93E2018E44F879F47C96F879F67C93EF443
:2001800032D6023ECF32D7023AD702CD740111E500CD3403444D116400CD9B0322C6022271
:2001A000CA023AD602CD740111A001CD3403444D116400CD9B0322C80222CC023E0032D8D4
:2001C00002ED4BCC02113200CD9B0322D002444D11CEFFCD3403ED5BCC021922D202ED4BA5
:2001E000CC02ED5BCC02CD3403E5ED4BCA02ED5BCA02CD3403D1373FED52444D113200CDEF
:200200009B03ED5BC60219E5ED4BCA02ED5BD202CD3403444D113200CD9B03E5ED4BCA02E6
:20022000ED5BD002CD3403D11929ED5BC8021922CC02C1ED43CA02113200CD9B0322CE0215
:20024000444D545DCD3403E5ED4BCC02113200CD9B0322D002444D545DCD3403D11922D4A5
:20026000023AD50220173AD402FE0530103AD8023C32D802FE10DAC1013E2018083AD80249
:20028000FE0ADE6927CD5801CD46013009B7200621380036FFFF21D702347ECB7FC28801CA
:2002A000FE1EDA8801CD510121D602347ECB7FC28301FE0DDA8301C9CD58013E3DCD58016C
:0602C000CDD902C370015C
:2002D9007CB5282ECB7C280C3E2DCD58017D2F6F7C2F6723C5D5CDF502D1C1C97CB5C8442C
:2002F9004D110A00CD5D03C5CDF502E17DC630C358013E30C35801E56069373FED52280939
:200319007CA86F78AAA5ACF601E1C9616BED6C794B5FED4CED5C7C818367C978AAF5CB7849
:200339002807AF676FED42444DCB7A2807AF676FED52545DCD2403F1CB7F28077C2F677D5A
:200359002F6F23C97AB3C82E011808B77B175F7A17572CCB7A28F47DF56069AF474F180FF2
:20037900F5B77A1F577B1F5FB779174F781747373FED52380303180119F13D20E3E5C5E182
:20039900C1C978AAF5CB782807AF676FED42444DCB7A2807AF676FED52545DCD5D03F1CB1A
:2003B9007F28077C2F677D2F6F23C9F5E5360078D6042377C6022336003D20FAE1F1C9D579
:2003D900E5DDE357DD7E00DDBE017A3805DDE3E1D1C9DD340011040019DD5E0219777B3C5C
:2003F900DDBE013801AFDD77027EDDE3E1D137C97EB72001C9D5E5DDE3DD35001104001941
:20041900DD5E03197B3CDDBE013801AFDD77037EDDE3E1D137C9F5C5014101ED78CB4F2846
:200439000D014001ED78E5210020CDD803E1C1F1FBED4DF5C5014101ED78CB47280FE521A8
:1E0459008020CD0904E1300A014001ED79C1F1FBED4D3E36014101ED79C1F1FBED4D5D
:021012002F04A9
:02108A004C0414
:00000001FF
