:040002000B02015B91
:060020000100011401398A
:200100000E80028C091008000E80028A0C3C028B0C3C0A8D000300940020089A0F280A97A3
:2001200008A50E2102980F200A8D02990A900F02000D000A00000C020912080006A40C013E
:200140000F900A9B02A40B9A0000000006AF0C3800B00FA80AA702AF0C3D02AF0BA50000A4
:0201600000029B
:20020000000002930E2106B40380048006B502B407B504B502B402930E0106B407B504B5EA
:2002200004B40A8E0B800FFC000006B60394049406B503B506B402B404B503B50F400AB18F
:2002400005B504B50E8003B50E010E0102B506B702B607B705B503B502B40FC007B50ED04C
:200260000F080EC002B60B9400000000000000000FFF00000E8003B904B906B503B506B400
:2002800004B503B50F280AD602B807B504B504B503B50E0102B506B703B706B605B503B5CB
:2002A00002B40FC007B50ED002B60BB90EC00BB900010000000006D90C0406DA0C3800D825
:1602C0000FA80AE50C39091108000E8002DA0C050E8002D90B002C
:041FFC0000800BFE58
:00000001FF
