:040002000B020204E7
:0A0020000180019401B901100100F4
:200100000E80029A091008000E80029B091008200E80029C0C3C029D0C3C09130F280A99D7
:20012000069E029E091408E308A108E308C608E90A8D0F0200200020000300940000003071
:20014000007800000E80029F09140E8002A009140E80029E0E0A0E0A08B30E80029E08B38C
:200160000BA1000F0041000000B106C202C10E2102C20F400ABE02C1029F0F0802B20914F1
:200180000BB3000A000000620008000000000E80029F09140E8002C309140E80029E0E062F
:2001A0000E0606C202C40E2106C508D904C50AD50BC600000E8002C20E0406C20F180E01E7
:2001C000029F09140BD900000E8002E809140BE3002000000E8002F109140E8002F209149D
:0601E0000BE9000D000A0E
:200200000000068E028E0C02091108200C010F100A830E80028F0C3C028E0B80000000B47B
:1602200000000C0209120800069A0C010F900A91029A0B90000079
:20030000000002930E2106B40380048006B502B407B504B502B402930E0106B407B504B5E9
:2003200004B40A8E0B800FFC000006B60394049406B503B506B402B404B503B50F400AB18E
:2003400005B504B50E8003B50E010E0102B506B702B607B705B503B502B40FC007B50ED04B
:200360000F080EC002B60B9400000000000000000FFF00000E8003B904B906B503B506B4FF
:2003800004B503B50F280AD602B807B504B504B503B50E0102B506B703B706B605B503B5CA
:1003A00002B40FC007B50ED002B60BB90EC00BB920
:20040000000100020000000006820C0406830C3800800FA80A8E0C39091108000E800C386C
:2004200000810FA80A98091208200F100A9E0C3D02830C050E8002820B000094029D0C3C61
:020440000A9818
:041FFC0000800BFE58
:00000001FF
