:040002000B020404E5
:2000200001000114013900B200A30093009902240180018E02800287029702AA02C802009D
:200040000234019F03B4000000000000000000000000000000000000000000000000000013
:2000600000000000000000000000000000000FF40FCF00E5006401A000320FFB0FF00FF675
:080080000FF30FE20041003014
:200100000E80028F0910080002900910082002910C3C02920C3C098E09160A8B02DF0020C9
:2001200000200003009400000E80029809140B93002000000E8002A109140E8002A2091468
:200140000B99000D000A000006B002B00C02091108200C010F900AA602B10C3C02B00BA375
:16016000000000B400000C020912080006BB0C010E8002BB0BB2CE
:20020000000002930E2106B40380048006B502B407B504B502B402930E0106B407B504B5EA
:2002200004B40A8E0B800FFC000006B60394049406B503B506B402B404B503B50F400AB18F
:2002400005B504B50E8003B50E010E0102B506B702B607B705B503B502B40FC007B50ED04C
:200260000F080EC002B60B9400000000000000000FFF00000E8003B904B906B503B506B400
:2002800004B503B50F280AD602B807B504B504B503B50E0102B506B703B706B605B503B5CB
:1002A00002B40FC007B50ED002B60BB90EC00BB921
:2003000000000EC00380048006230224032306240E0402250423032306250B8000000E809F
:20032000038E048E062303230E71022406240E04042303230E31022506250B8E002D0000C6
:200340000E8002250FC00AA8029E09140917002407C604C6022406260225062702C5062834
:2003600006290920022602C407C604C602240FA00AAA02250FA00AAA0EA002C606C603C682
:0E0380000F280B9F09140ABC0030000A01C7A9
:2004000000000E80062406250A9D0EC002290E08062902280E0806280F100A960EC00226F1
:20042000022406240E040227022506250EC002260E04062602270E04062702280FA00A85DB
:2004400002290FA00A850B8000000E8003A404A4062303230E610723042303230E200F1841
:200460000E0107230BA4000000000E800624062502280F200ABF02290F200ABF0BB40E811E
:2004800006B30ACA0EC002280E04062802290E04062904B302290E060E060FC00AC20ADF9D
:2004A00006B30EC002290E08062902280E0806280EC002240E04062402250E040625022819
:2004C0000E71022606260E0402290E31022706270F180AEC04240AF40EC0022802260626E8
:1204E0000E040229022706270EA002B30F200AD00BB44C
:200500000000062402240FC80EA006250B8000000626062702260FC00A8F0EA00627022664
:20052000022406240E040227022506250B8700000626062702270FC00A9F0EA0062702264F
:200540000E71022406240E0402260E31022506250B97000000000628062906A902280F40DA
:200560000AB40E21062804A90E80022406260225062702270F400ABF04A909170026091F23
:2005800002A90E080F900AC6091700240BAA000000000628062906C7022406260225062762
:2005A00002270F400AD604C709170026092002C70E080F900ADD091700240BC80BDF000043
:2005C0000E80023706340E80023806350E800235091A0239091D023A091E0224062C0224ED
:2005E000062E0234091A023B091D023A091E0224062D0224062F06360E80022F091A023C98
:20060000091E0224063202320E21091A023C091D022F091B02240630022F091A022F091D0F
:200620000224062A0225062B022E091A022E091D0919002A023C091E022C091B0224062A0A
:20064000022E091A0232091D02240633022E091A0230091D023C091E0233091B02240633C6
:2006600002330233022D062F022A062E022E091A023C091E022406310231091D022406337F
:1A068000022F091A023C091E022406320232091D0224023306330BCC038001
:200700000233023D0FC00A8E02360E0106360236023E0FC80B8D09150A9902FC0E8002360F
:20072000023F0F480A9502420A980E8002360243091409130F100AA00F200AA00F0202E6BD
:200740000E8002350E010635023502410F480B9F09160E8002340E010634023402400F4814
:200760000BB102E30BB302DE0000091A03B404B409140E8002C00914092109150E800BB489
:02078000003D3A
:20080000000100020000000006820C0406830C3800800FA80A8E0C39091108000E800C3868
:2008200000810FA80A98091208200F100A9E0C3D02830C050E8002820B000094029D0C3C5D
:020840000A9814
:041FFC0000800BFE58
:00000001FF
